{
  "address": "0xEbe678C8389bC74Ed1A7BD91407A03E96BAAB1bD",
  "abi": [
    {
      "inputs": [],
      "stateMutability": "nonpayable",
      "type": "constructor"
    },
    {
      "inputs": [],
      "name": "MintFailed",
      "type": "error"
    },
    {
      "anonymous": false,
      "inputs": [
        {
          "indexed": true,
          "internalType": "address",
          "name": "owner",
          "type": "address"
        },
        {
          "indexed": true,
          "internalType": "address",
          "name": "approved",
          "type": "address"
        },
        {
          "indexed": true,
          "internalType": "uint256",
          "name": "tokenId",
          "type": "uint256"
        }
      ],
      "name": "Approval",
      "type": "event"
    },
    {
      "anonymous": false,
      "inputs": [
        {
          "indexed": true,
          "internalType": "address",
          "name": "owner",
          "type": "address"
        },
        {
          "indexed": true,
          "internalType": "address",
          "name": "operator",
          "type": "address"
        },
        {
          "indexed": false,
          "internalType": "bool",
          "name": "approved",
          "type": "bool"
        }
      ],
      "name": "ApprovalForAll",
      "type": "event"
    },
    {
      "anonymous": false,
      "inputs": [
        {
          "indexed": true,
          "internalType": "address",
          "name": "from",
          "type": "address"
        },
        {
          "indexed": true,
          "internalType": "address",
          "name": "to",
          "type": "address"
        },
        {
          "indexed": true,
          "internalType": "uint256",
          "name": "tokenId",
          "type": "uint256"
        }
      ],
      "name": "Transfer",
      "type": "event"
    },
    {
      "inputs": [
        {
          "internalType": "address",
          "name": "to",
          "type": "address"
        },
        {
          "internalType": "uint256",
          "name": "tokenId",
          "type": "uint256"
        }
      ],
      "name": "approve",
      "outputs": [],
      "stateMutability": "nonpayable",
      "type": "function"
    },
    {
      "inputs": [
        {
          "internalType": "address",
          "name": "owner",
          "type": "address"
        }
      ],
      "name": "balanceOf",
      "outputs": [
        {
          "internalType": "uint256",
          "name": "",
          "type": "uint256"
        }
      ],
      "stateMutability": "view",
      "type": "function"
    },
    {
      "inputs": [],
      "name": "cost",
      "outputs": [
        {
          "internalType": "uint256",
          "name": "",
          "type": "uint256"
        }
      ],
      "stateMutability": "view",
      "type": "function"
    },
    {
      "inputs": [
        {
          "internalType": "uint256",
          "name": "tokenId",
          "type": "uint256"
        }
      ],
      "name": "getApproved",
      "outputs": [
        {
          "internalType": "address",
          "name": "",
          "type": "address"
        }
      ],
      "stateMutability": "view",
      "type": "function"
    },
    {
      "inputs": [],
      "name": "getLatestPrice",
      "outputs": [
        {
          "internalType": "int256",
          "name": "",
          "type": "int256"
        }
      ],
      "stateMutability": "view",
      "type": "function"
    },
    {
      "inputs": [
        {
          "internalType": "address",
          "name": "owner",
          "type": "address"
        },
        {
          "internalType": "address",
          "name": "operator",
          "type": "address"
        }
      ],
      "name": "isApprovedForAll",
      "outputs": [
        {
          "internalType": "bool",
          "name": "",
          "type": "bool"
        }
      ],
      "stateMutability": "view",
      "type": "function"
    },
    {
      "inputs": [],
      "name": "mint",
      "outputs": [],
      "stateMutability": "payable",
      "type": "function"
    },
    {
      "inputs": [],
      "name": "name",
      "outputs": [
        {
          "internalType": "string",
          "name": "",
          "type": "string"
        }
      ],
      "stateMutability": "view",
      "type": "function"
    },
    {
      "inputs": [],
      "name": "nonce",
      "outputs": [
        {
          "internalType": "uint256",
          "name": "",
          "type": "uint256"
        }
      ],
      "stateMutability": "view",
      "type": "function"
    },
    {
      "inputs": [
        {
          "internalType": "uint256",
          "name": "tokenId",
          "type": "uint256"
        }
      ],
      "name": "ownerOf",
      "outputs": [
        {
          "internalType": "address",
          "name": "",
          "type": "address"
        }
      ],
      "stateMutability": "view",
      "type": "function"
    },
    {
      "inputs": [
        {
          "internalType": "address",
          "name": "from",
          "type": "address"
        },
        {
          "internalType": "address",
          "name": "to",
          "type": "address"
        },
        {
          "internalType": "uint256",
          "name": "tokenId",
          "type": "uint256"
        }
      ],
      "name": "safeTransferFrom",
      "outputs": [],
      "stateMutability": "nonpayable",
      "type": "function"
    },
    {
      "inputs": [
        {
          "internalType": "address",
          "name": "from",
          "type": "address"
        },
        {
          "internalType": "address",
          "name": "to",
          "type": "address"
        },
        {
          "internalType": "uint256",
          "name": "tokenId",
          "type": "uint256"
        },
        {
          "internalType": "bytes",
          "name": "data",
          "type": "bytes"
        }
      ],
      "name": "safeTransferFrom",
      "outputs": [],
      "stateMutability": "nonpayable",
      "type": "function"
    },
    {
      "inputs": [
        {
          "internalType": "address",
          "name": "operator",
          "type": "address"
        },
        {
          "internalType": "bool",
          "name": "approved",
          "type": "bool"
        }
      ],
      "name": "setApprovalForAll",
      "outputs": [],
      "stateMutability": "nonpayable",
      "type": "function"
    },
    {
      "inputs": [
        {
          "internalType": "bytes4",
          "name": "interfaceId",
          "type": "bytes4"
        }
      ],
      "name": "supportsInterface",
      "outputs": [
        {
          "internalType": "bool",
          "name": "",
          "type": "bool"
        }
      ],
      "stateMutability": "view",
      "type": "function"
    },
    {
      "inputs": [],
      "name": "symbol",
      "outputs": [
        {
          "internalType": "string",
          "name": "",
          "type": "string"
        }
      ],
      "stateMutability": "view",
      "type": "function"
    },
    {
      "inputs": [
        {
          "internalType": "uint256",
          "name": "tokenId",
          "type": "uint256"
        }
      ],
      "name": "tokenURI",
      "outputs": [
        {
          "internalType": "string",
          "name": "",
          "type": "string"
        }
      ],
      "stateMutability": "view",
      "type": "function"
    },
    {
      "inputs": [
        {
          "internalType": "address",
          "name": "from",
          "type": "address"
        },
        {
          "internalType": "address",
          "name": "to",
          "type": "address"
        },
        {
          "internalType": "uint256",
          "name": "tokenId",
          "type": "uint256"
        }
      ],
      "name": "transferFrom",
      "outputs": [],
      "stateMutability": "nonpayable",
      "type": "function"
    }
  ],
  "transactionHash": "0xf75c82c2f5d468ed5596846d5e5c8a964b68e7609c389e736ac51c4b83609040",
  "args": [],
  "numDeployments": 1,
  "solcInputHash": "a6f96380ef4f00016dfd94d418e11403",
  "bytecode": "0x60806040523480156200001157600080fd5b506040518060400160405280600a81526020016911d85b59481219585c9d60b21b8152506040518060400160405280600381526020016212149560ea1b81525081600090816200006291906200014a565b5060016200007182826200014a565b5050600880546001600160a01b03191673d0d5e3db44de05e9f294bb0a3beeaf030de24ada17905550600560075562000216565b634e487b7160e01b600052604160045260246000fd5b600181811c90821680620000d057607f821691505b602082108103620000f157634e487b7160e01b600052602260045260246000fd5b50919050565b601f8211156200014557600081815260208120601f850160051c81016020861015620001205750805b601f850160051c820191505b8181101562000141578281556001016200012c565b5050505b505050565b81516001600160401b03811115620001665762000166620000a5565b6200017e81620001778454620000bb565b84620000f7565b602080601f831160018114620001b657600084156200019d5750858301515b600019600386901b1c1916600185901b17855562000141565b600085815260208120601f198616915b82811015620001e757888601518255948401946001909101908401620001c6565b5085821015620002065787850151600019600388901b60f8161c191681555b5050505050600190811b01905550565b61151d80620002266000396000f3fe6080604052600436106100fe5760003560e01c80636352211e11610095578063a22cb46511610064578063a22cb4651461028a578063affed0e0146102aa578063b88d4fde146102c0578063c87b56dd146102e0578063e985e9c51461030057600080fd5b80636352211e1461022057806370a08231146102405780638e15f4731461026057806395d89b411461027557600080fd5b80631249c58b116100d15780631249c58b146101b457806313faede6146101bc57806323b872dd146101e057806342842e0e1461020057600080fd5b806301ffc9a71461010357806306fdde0314610138578063081812fc1461015a578063095ea7b314610192575b600080fd5b34801561010f57600080fd5b5061012361011e366004610fda565b610320565b60405190151581526020015b60405180910390f35b34801561014457600080fd5b5061014d610372565b60405161012f9190611047565b34801561016657600080fd5b5061017a61017536600461105a565b610404565b6040516001600160a01b03909116815260200161012f565b34801561019e57600080fd5b506101b26101ad36600461108f565b61042b565b005b6101b2610545565b3480156101c857600080fd5b506101d260075481565b60405190815260200161012f565b3480156101ec57600080fd5b506101b26101fb3660046110b9565b6105b8565b34801561020c57600080fd5b506101b261021b3660046110b9565b6105e9565b34801561022c57600080fd5b5061017a61023b36600461105a565b610604565b34801561024c57600080fd5b506101d261025b3660046110f5565b610664565b34801561026c57600080fd5b506101d26106ea565b34801561028157600080fd5b5061014d61076f565b34801561029657600080fd5b506101b26102a5366004611110565b61077e565b3480156102b657600080fd5b506101d260065481565b3480156102cc57600080fd5b506101b26102db366004611162565b61078d565b3480156102ec57600080fd5b5061014d6102fb36600461105a565b6107c5565b34801561030c57600080fd5b5061012361031b36600461123e565b610839565b60006001600160e01b031982166380ac58cd60e01b148061035157506001600160e01b03198216635b5e139f60e01b145b8061036c57506301ffc9a760e01b6001600160e01b03198316145b92915050565b60606000805461038190611271565b80601f01602080910402602001604051908101604052809291908181526020018280546103ad90611271565b80156103fa5780601f106103cf576101008083540402835291602001916103fa565b820191906000526020600020905b8154815290600101906020018083116103dd57829003601f168201915b5050505050905090565b600061040f82610867565b506000908152600460205260409020546001600160a01b031690565b600061043682610604565b9050806001600160a01b0316836001600160a01b0316036104a85760405162461bcd60e51b815260206004820152602160248201527f4552433732313a20617070726f76616c20746f2063757272656e74206f776e656044820152603960f91b60648201526084015b60405180910390fd5b336001600160a01b03821614806104c457506104c48133610839565b6105365760405162461bcd60e51b815260206004820152603e60248201527f4552433732313a20617070726f76652063616c6c6572206973206e6f7420746f60448201527f6b656e206f776e6572206e6f7220617070726f76656420666f7220616c6c0000606482015260840161049f565b61054083836108c9565b505050565b600061054f6106ea565b90506000811361055e57600080fd5b60008160075461056e91906112d7565b9050803410156105905760405162ec6f7b60e31b815260040160405180910390fd5b61059c33600654610937565b6001600660008282546105af91906112eb565b90915550505050565b6105c23382610951565b6105de5760405162461bcd60e51b815260040161049f906112fe565b6105408383836109b0565b6105408383836040518060200160405280600081525061078d565b6000818152600260205260408120546001600160a01b03168061036c5760405162461bcd60e51b8152602060048201526018602482015277115490cdcc8c4e881a5b9d985b1a59081d1bdad95b88125160421b604482015260640161049f565b60006001600160a01b0382166106ce5760405162461bcd60e51b815260206004820152602960248201527f4552433732313a2061646472657373207a65726f206973206e6f7420612076616044820152683634b21037bbb732b960b91b606482015260840161049f565b506001600160a01b031660009081526003602052604090205490565b600080600860009054906101000a90046001600160a01b03166001600160a01b031663feaf968c6040518163ffffffff1660e01b815260040160a060405180830381865afa158015610740573d6000803e3d6000fd5b505050506040513d601f19601f820116820180604052508101906107649190611366565b509195945050505050565b60606001805461038190611271565b610789338383610b4c565b5050565b6107973383610951565b6107b35760405162461bcd60e51b815260040161049f906112fe565b6107bf84848484610c1a565b50505050565b60606107d082610867565b60006107e760408051602081019091526000815290565b905060008151116108075760405180602001604052806000815250610832565b8061081184610c4d565b6040516020016108229291906113b6565b6040516020818303038152906040525b9392505050565b6001600160a01b03918216600090815260056020908152604080832093909416825291909152205460ff1690565b6000818152600260205260409020546001600160a01b03166108c65760405162461bcd60e51b8152602060048201526018602482015277115490cdcc8c4e881a5b9d985b1a59081d1bdad95b88125160421b604482015260640161049f565b50565b600081815260046020526040902080546001600160a01b0319166001600160a01b03841690811790915581906108fe82610604565b6001600160a01b03167f8c5be1e5ebec7d5bd14f71427d1e84f3dd0314c0f7b2291e5b200ac8c7c3b92560405160405180910390a45050565b610789828260405180602001604052806000815250610d4e565b60008061095d83610604565b9050806001600160a01b0316846001600160a01b0316148061098457506109848185610839565b806109a85750836001600160a01b031661099d84610404565b6001600160a01b0316145b949350505050565b826001600160a01b03166109c382610604565b6001600160a01b031614610a275760405162461bcd60e51b815260206004820152602560248201527f4552433732313a207472616e736665722066726f6d20696e636f72726563742060448201526437bbb732b960d91b606482015260840161049f565b6001600160a01b038216610a895760405162461bcd60e51b8152602060048201526024808201527f4552433732313a207472616e7366657220746f20746865207a65726f206164646044820152637265737360e01b606482015260840161049f565b610a946000826108c9565b6001600160a01b0383166000908152600360205260408120805460019290610abd9084906113e5565b90915550506001600160a01b0382166000908152600360205260408120805460019290610aeb9084906112eb565b909155505060008181526002602052604080822080546001600160a01b0319166001600160a01b0386811691821790925591518493918716917fddf252ad1be2c89b69c2b068fc378daa952ba7f163c4a11628f55a4df523b3ef91a4505050565b816001600160a01b0316836001600160a01b031603610bad5760405162461bcd60e51b815260206004820152601960248201527f4552433732313a20617070726f766520746f2063616c6c657200000000000000604482015260640161049f565b6001600160a01b03838116600081815260056020908152604080832094871680845294825291829020805460ff191686151590811790915591519182527f17307eab39ab6107e8899845ad3d59bd9653f200f220920489ca2b5937696c31910160405180910390a3505050565b610c258484846109b0565b610c3184848484610d81565b6107bf5760405162461bcd60e51b815260040161049f906113f8565b606081600003610c745750506040805180820190915260018152600360fc1b602082015290565b8160005b8115610c9e5780610c888161144a565b9150610c979050600a836112d7565b9150610c78565b60008167ffffffffffffffff811115610cb957610cb961114c565b6040519080825280601f01601f191660200182016040528015610ce3576020820181803683370190505b5090505b84156109a857610cf86001836113e5565b9150610d05600a86611463565b610d109060306112eb565b60f81b818381518110610d2557610d25611477565b60200101906001600160f81b031916908160001a905350610d47600a866112d7565b9450610ce7565b610d588383610e82565b610d656000848484610d81565b6105405760405162461bcd60e51b815260040161049f906113f8565b60006001600160a01b0384163b15610e7757604051630a85bd0160e11b81526001600160a01b0385169063150b7a0290610dc590339089908890889060040161148d565b6020604051808303816000875af1925050508015610e00575060408051601f3d908101601f19168201909252610dfd918101906114ca565b60015b610e5d573d808015610e2e576040519150601f19603f3d011682016040523d82523d6000602084013e610e33565b606091505b508051600003610e555760405162461bcd60e51b815260040161049f906113f8565b805181602001fd5b6001600160e01b031916630a85bd0160e11b1490506109a8565b506001949350505050565b6001600160a01b038216610ed85760405162461bcd60e51b815260206004820181905260248201527f4552433732313a206d696e7420746f20746865207a65726f2061646472657373604482015260640161049f565b6000818152600260205260409020546001600160a01b031615610f3d5760405162461bcd60e51b815260206004820152601c60248201527f4552433732313a20746f6b656e20616c7265616479206d696e74656400000000604482015260640161049f565b6001600160a01b0382166000908152600360205260408120805460019290610f669084906112eb565b909155505060008181526002602052604080822080546001600160a01b0319166001600160a01b03861690811790915590518392907fddf252ad1be2c89b69c2b068fc378daa952ba7f163c4a11628f55a4df523b3ef908290a45050565b6001600160e01b0319811681146108c657600080fd5b600060208284031215610fec57600080fd5b813561083281610fc4565b60005b83811015611012578181015183820152602001610ffa565b50506000910152565b60008151808452611033816020860160208601610ff7565b601f01601f19169290920160200192915050565b602081526000610832602083018461101b565b60006020828403121561106c57600080fd5b5035919050565b80356001600160a01b038116811461108a57600080fd5b919050565b600080604083850312156110a257600080fd5b6110ab83611073565b946020939093013593505050565b6000806000606084860312156110ce57600080fd5b6110d784611073565b92506110e560208501611073565b9150604084013590509250925092565b60006020828403121561110757600080fd5b61083282611073565b6000806040838503121561112357600080fd5b61112c83611073565b91506020830135801515811461114157600080fd5b809150509250929050565b634e487b7160e01b600052604160045260246000fd5b6000806000806080858703121561117857600080fd5b61118185611073565b935061118f60208601611073565b925060408501359150606085013567ffffffffffffffff808211156111b357600080fd5b818701915087601f8301126111c757600080fd5b8135818111156111d9576111d961114c565b604051601f8201601f19908116603f011681019083821181831017156112015761120161114c565b816040528281528a602084870101111561121a57600080fd5b82602086016020830137600060208483010152809550505050505092959194509250565b6000806040838503121561125157600080fd5b61125a83611073565b915061126860208401611073565b90509250929050565b600181811c9082168061128557607f821691505b6020821081036112a557634e487b7160e01b600052602260045260246000fd5b50919050565b634e487b7160e01b600052601260045260246000fd5b634e487b7160e01b600052601160045260246000fd5b6000826112e6576112e66112ab565b500490565b8082018082111561036c5761036c6112c1565b6020808252602e908201527f4552433732313a2063616c6c6572206973206e6f7420746f6b656e206f776e6560408201526d1c881b9bdc88185c1c1c9bdd995960921b606082015260800190565b805169ffffffffffffffffffff8116811461108a57600080fd5b600080600080600060a0868803121561137e57600080fd5b6113878661134c565b94506020860151935060408601519250606086015191506113aa6080870161134c565b90509295509295909350565b600083516113c8818460208801610ff7565b8351908301906113dc818360208801610ff7565b01949350505050565b8181038181111561036c5761036c6112c1565b60208082526032908201527f4552433732313a207472616e7366657220746f206e6f6e20455243373231526560408201527131b2b4bb32b91034b6b83632b6b2b73a32b960711b606082015260800190565b60006001820161145c5761145c6112c1565b5060010190565b600082611472576114726112ab565b500690565b634e487b7160e01b600052603260045260246000fd5b6001600160a01b03858116825284166020820152604081018390526080606082018190526000906114c09083018461101b565b9695505050505050565b6000602082840312156114dc57600080fd5b815161083281610fc456fea26469706673582212205bddd5fe7f011d8e5e710b54d30b217247413953abbfbc0750c9787dd096cfd264736f6c63430008110033",
  "devdoc": {
    "kind": "dev",
    "methods": {
      "approve(address,uint256)": {
        "details": "See {IERC721-approve}."
      },
      "balanceOf(address)": {
        "details": "See {IERC721-balanceOf}."
      },
      "getApproved(uint256)": {
        "details": "See {IERC721-getApproved}."
      },
      "isApprovedForAll(address,address)": {
        "details": "See {IERC721-isApprovedForAll}."
      },
      "name()": {
        "details": "See {IERC721Metadata-name}."
      },
      "ownerOf(uint256)": {
        "details": "See {IERC721-ownerOf}."
      },
      "safeTransferFrom(address,address,uint256)": {
        "details": "See {IERC721-safeTransferFrom}."
      },
      "safeTransferFrom(address,address,uint256,bytes)": {
        "details": "See {IERC721-safeTransferFrom}."
      },
      "setApprovalForAll(address,bool)": {
        "details": "See {IERC721-setApprovalForAll}."
      },
      "supportsInterface(bytes4)": {
        "details": "See {IERC165-supportsInterface}."
      },
      "symbol()": {
        "details": "See {IERC721Metadata-symbol}."
      },
      "tokenURI(uint256)": {
        "details": "See {IERC721Metadata-tokenURI}."
      },
      "transferFrom(address,address,uint256)": {
        "details": "See {IERC721-transferFrom}."
      }
    },
    "version": 1
  },
  "userdoc": {
    "kind": "user",
    "methods": {},
    "version": 1
  },
  "storageLayout": {
    "storage": [
      {
        "astId": 71,
        "contract": "contracts/Heart.sol:HRT",
        "label": "_name",
        "offset": 0,
        "slot": "0",
        "type": "t_string_storage"
      },
      {
        "astId": 73,
        "contract": "contracts/Heart.sol:HRT",
        "label": "_symbol",
        "offset": 0,
        "slot": "1",
        "type": "t_string_storage"
      },
      {
        "astId": 77,
        "contract": "contracts/Heart.sol:HRT",
        "label": "_owners",
        "offset": 0,
        "slot": "2",
        "type": "t_mapping(t_uint256,t_address)"
      },
      {
        "astId": 81,
        "contract": "contracts/Heart.sol:HRT",
        "label": "_balances",
        "offset": 0,
        "slot": "3",
        "type": "t_mapping(t_address,t_uint256)"
      },
      {
        "astId": 85,
        "contract": "contracts/Heart.sol:HRT",
        "label": "_tokenApprovals",
        "offset": 0,
        "slot": "4",
        "type": "t_mapping(t_uint256,t_address)"
      },
      {
        "astId": 91,
        "contract": "contracts/Heart.sol:HRT",
        "label": "_operatorApprovals",
        "offset": 0,
        "slot": "5",
        "type": "t_mapping(t_address,t_mapping(t_address,t_bool))"
      },
      {
        "astId": 1660,
        "contract": "contracts/Heart.sol:HRT",
        "label": "nonce",
        "offset": 0,
        "slot": "6",
        "type": "t_uint256"
      },
      {
        "astId": 1662,
        "contract": "contracts/Heart.sol:HRT",
        "label": "cost",
        "offset": 0,
        "slot": "7",
        "type": "t_uint256"
      },
      {
        "astId": 1665,
        "contract": "contracts/Heart.sol:HRT",
        "label": "priceFeed",
        "offset": 0,
        "slot": "8",
        "type": "t_contract(AggregatorV3Interface)45"
      }
    ],
    "types": {
      "t_address": {
        "encoding": "inplace",
        "label": "address",
        "numberOfBytes": "20"
      },
      "t_bool": {
        "encoding": "inplace",
        "label": "bool",
        "numberOfBytes": "1"
      },
      "t_contract(AggregatorV3Interface)45": {
        "encoding": "inplace",
        "label": "contract AggregatorV3Interface",
        "numberOfBytes": "20"
      },
      "t_mapping(t_address,t_bool)": {
        "encoding": "mapping",
        "key": "t_address",
        "label": "mapping(address => bool)",
        "numberOfBytes": "32",
        "value": "t_bool"
      },
      "t_mapping(t_address,t_mapping(t_address,t_bool))": {
        "encoding": "mapping",
        "key": "t_address",
        "label": "mapping(address => mapping(address => bool))",
        "numberOfBytes": "32",
        "value": "t_mapping(t_address,t_bool)"
      },
      "t_mapping(t_address,t_uint256)": {
        "encoding": "mapping",
        "key": "t_address",
        "label": "mapping(address => uint256)",
        "numberOfBytes": "32",
        "value": "t_uint256"
      },
      "t_mapping(t_uint256,t_address)": {
        "encoding": "mapping",
        "key": "t_uint256",
        "label": "mapping(uint256 => address)",
        "numberOfBytes": "32",
        "value": "t_address"
      },
      "t_string_storage": {
        "encoding": "bytes",
        "label": "string",
        "numberOfBytes": "32"
      },
      "t_uint256": {
        "encoding": "inplace",
        "label": "uint256",
        "numberOfBytes": "32"
      }
    }
  }
}